:020000040800F2
:10000000B8100024AD020008F3900008F174000855
:10001000F190000849150008D1A600080000000072
:100020000000000000000000000000007D950008B6
:100030007D1B000800000000F9910008D59600081B
:10004000C7020008C7020008C7020008C70200086C
:10005000C7020008C7020008C7020008C70200085C
:10006000C7020008C7020008C7020008E51600081A
:10007000F1160008FD1600080917000815170008FA
:1000800021170008C7020008C7020008C7020008BD
:10009000C7020008C7020008C7020008C70200081C
:1000A000C7020008C7020008C70200085D980008E0
:1000B000C70200086998000875980008C702000880
:1000C000C7020008C7020008C7020008C7020008EC
:1000D000C702000851A6000875A60008C70200085C
:1000E000C7020008C702000800000000C70200089D
:1000F000C7020008C7020008C7020008C7020008BC
:10010000C7020008C7020008C7020008C7020008AB
:10011000D99D0008C7020008819800088D98000842
:100120002D17000839170008C7020008C702000889
:10013000C7020008C7020008C7020008C70200087B
:1001400000000000000000000000000000000000AF
:10015000C7020008C7020008C7020008C70200085B
:10016000C7020008C7020008C7020008C70200084B
:10017000C7020008C7020008C7020008C70200083B
:10018000C7020008C7020008C7020008C70200082B
:100190003D940008C7020008C7020008C702000813
:1001A000C7020008C7020008C7020008C70200080B
:1001B000C7020008C7020008C7020008C7020008FB
:1001C000C7020008C7020008C7020008C7020008EB
:1001D000C7020008C7020008C7020008C7020008DB
:1001E000C7020008C7020008C7020008C7020008CB
:1001F000C7020008C7020008C7020008C7020008BB
:10020000C7020008C7020008C7020008C7020008AA
:10021000C7020008C7020008C7020008C70200089A
:10022000C7020008C7020008C7020008000000005B
:10023000C7020008C702000800000000C70200084B
:10024000C7020008C7020008C7020008C70200086A
:10025000C7020008C7020008C7020008C70200085A
:10026000C7020008C7020008C7020008C70200084A
:10027000C7020008C7020008C7020008000000000B
:10028000C7020008C7020008C702000800000000FB
:1002900000000000C7020008DFF80CD000F0CAFB25
:1002A000004800479DB30008B81000240648804766
:1002B00006480047FEE7FEE7FEE7FEE7FEE7FEE74B
:1002C000FEE7FEE7FEE7FEE78197000899020008D7
:1002D0002DE9F05F0546002092469B46884606467B
:1002E000814640241BE0284641464746224600F00E
:1002F0001EF953465A46C01A914110D3114618466A
:10030000224600F005F92D1A67EB01084F462246F8
:100310000120002100F0FCF817EB00094E41201EDF
:10032000A4F10104DFDC484631462A464346BDE8D5
:10033000F09FA0F16101192900D82038704740EAE8
:1003400001039B0703D009E008C9121F08C0042A53
:10035000FAD203E011F8013B00F8013B521EF9D23A
:100360007047D2B201E000F8012B491EFBD2704762
:100370000022F6E710B513460A4604461946FFF771
:10038000F0FF204610BD421C10F8011B0029FBD1D4
:10039000801A704710B5002200E0521C835C8C5C10
:1003A000A34201D1002BF8D1D8B2E1B2401A10BD5E
:1003B0000FB400B58DB010A909900B9000914FF0CB
:1003C000FF300A9000200C900548069005480790E1
:1003D0006A4609A80F9900F0C1F80DB05DF814FB4A
:1003E00079050008970500082DE9FF5FD2E901A70C
:1003F0004FF00008916999461446DDF838B046463A
:1004000001988847054659EA0B0005D009E0A16923
:10041000761C019888470546216A284688470028A7
:10042000F5D1681C03D05FEACA7005D015E04FF023
:10043000FF3004B0BDE8F09F2068011D2160D0F8B6
:1004400000800AE05FEACA7001D108F8015BA16987
:10045000761C7F1E019888470546002F1ADD681C10
:1004600018D0B9F1000F0DD0E81705EBD06042119C
:1004700020F01F0059F822102A1A01209040014252
:10048000E0D107E0BBF1000FDCD1216A28468847A4
:100490000028D7D0E16901988847BBF1000F07D148
:1004A000002E05DD5FEACA7002D1002188F8001035
:1004B000A068B84203DDBBF1000F03D017B16FF0A5
:1004C0000100B6E73046B4E730B40446962308008E
:1004D000214604D0B62330BC002200F0C4B8204628
:1004E0000021F8E730B50B46014600202022012408
:1004F00009E021FA02F59D4205D303FA02F5491BF2
:1005000004FA02F52844151EA2F10102F1DC30BD07
:10051000202A04DB203A00FA02F1002070479140C3
:10052000C2F1200320FA03F3194390407047202AB8
:1005300004DB203A21FA02F00021704721FA02F38D
:10054000D040C2F120029140084319467047000094
:10055000026811441378016018467047D16004495D
:1005600051610449116200211161114600F08CBAF9
:10057000510500087D0A0008426842B1016811F87F
:10058000013B23B1521EC0E90012184670470121F9
:10059000C160881E704742685AB1C368016843B998
:1005A00083688B4205D0491E521CC0E9001200200E
:1005B00070474FF0FF3070470FB4002300B589B08B
:1005C0000CA900910B996FF00042CB601E4B069373
:1005D0001E4B07930423CDE901321D4A08920246BF
:1005E0006B46002000F066FC09B05DF814FB70B5A6
:1005F00086B006464FF0FF300091CDE901010020A2
:1006000015460C4604903246694604A8FFF7D4FF0D
:1006100003460498211825B108B10A4600E0224695
:100620002A6000280DD0002B02DD0098884208D0F7
:10063000081B0094CDE901043246694604A8FFF77F
:10064000BBFF06B070BD00007905000897050008E3
:100650007D0A00080029A8BF7047401C490008BF58
:1006600020F00100704710B4B0FA80FC00FA0CF0E2
:1006700050EA010404BF10BC704749B1CCF120041A
:1006800021FA04F411FA0CF118BF012121430843A7
:10069000A3EB0C01CB1D4FEA00614FEA102042BFD3
:1006A000002010BC704700EBC35010440029A4BFC9
:1006B00010BC7047401C490008BF20F0010010BC6E
:1006C00070472DE9FE4F804681EA0300C00F0C46BB
:1006D000009021F0004123F00045B8EB0200A94151
:1006E00005D24046214690461C460B46024623F062
:1006F0000040104347D0270DC7F30A00C3F30A5147
:100700000290401A019040286BDAC3F3130040F4C2
:10071000801B0098924620B10023D2EB030A63EBC2
:100720000B0B01985946C0F140025046FFF7F0FE0E
:1007300006460D4650465946019A00F08DF910EBD9
:1007400008006141002487EA115284EAE7731A43E2
:1007500040D0009A62B3019A012A4FEA075215DC91
:10076000001B61EB02014FF0004202EA0752CDE9A3
:100770000042001C41F5801132462B4600F0C5FCBA
:1007800003B0BDE8F08F40462146F9E7001B61EB5E
:100790000201001C41F5801300185B412018A2F5EE
:1007A000001747EB030140EAD570B6196D4111E01F
:1007B0006D084FEA360645EAC0754FEA0752001B3E
:1007C00061EB0201001C41F5801149084FEA30003D
:1007D0000019514132462B4603B0BDE8F04F00F0FE
:1007E00085BC0098012240000023D0EB020263EB9D
:1007F000E073009821464FEAE074B8EB000061EB2B
:100800000401E9E783F000435BE781F0004158E72A
:100810002DE9FE4F81EA030404F0004421F0004179
:1008200000944FF0000B23F0004350EA01045ED027
:1008300052EA03045BD0C3F30A54C1F30A552C44B3
:10084000A4F2F3340194A0FB0254C1F3130141F468
:100850008011C3F3130343F4801301FB024400FB34
:10086000034E840A970A44EA815447EA8357A4FB5B
:10087000076802958D0A05FB07854FEA932C04FB58
:100880000C542705029D4FEA065847EA1637B5EB88
:1008900008056EEB070C870E920E47EA811742EAB5
:1008A0008312A7FB0201B6EB0B0164EB00042B0DD6
:1008B00043EA0C335E1844EB1C50DA465146E7FB22
:1008C0000201C5F313044FEA0B3343EA14534FEA12
:1008D0000432019C43EA0603A4F10C040294009C38
:1008E000CDE900B400F011FC03B0BDE8F08F0020AA
:1008F0000146F9E72DE9F04D81EA030404F0004BCD
:1009000021F0004514464FF0000A23F0004150EA60
:10091000050220D054EA01021DD0C5F30A57024651
:10092000C5F31303C1F31300C1F30A5640F4801555
:1009300043F48013A7EB0608101BD64608F2FD38D7
:1009400073EB050002D308F1010801E092185B4146
:10095000B8F1000F03DA00200146BDE8F08D002059
:100960004FF48011064684460EE0171B73EB050713
:1009700005D3121B63EB050306434CEA010C49083F
:100980004FEA300092185B4150EA0107EDD152EA7C
:10099000030012D082EA040083EA0501084305D06F
:1009A000101BAB4106D20122002306E000224FF0CB
:1009B000004302E06FF0010253101AEB06004CEB0B
:1009C000085110EB0A0041EB0B01BDE8F04D00F0BF
:1009D0008DBBC1F30A52C1F3130140F2FF3341F45E
:1009E00080119A4202DA00200146704740F23343F8
:1009F0009A42A2F2334202DC5242FFF798BDFFF75F
:100A000087BD000030B5041E71F1000404DB4FF017
:100A10000044404264EB0101141E73F1000405DB45
:100A20001C464FF00043524263EB0403994208BF57
:100A3000904230BD064C074D06E0E06840F00103EF
:100A400094E8070098471034AC42F6D3FFF728FC2F
:100A50007CBA00089CBA0008202A06DBCB17203A93
:100A600041FA02F043EAE07306E041FA02F3D040B3
:100A7000C2F120029140084319467047C0B24FF4BA
:100A8000F05100F091BB00002DE9F34F8BB04FF017
:100A9000000801F10C000C464FF0010B46460DF129
:100AA000080A01906269012101989047051E2DD026
:100AB000252D2CD0216A8847C0B162690121019897
:100AC0009047216A88470028F7D1411E6269019842
:100AD000904700E0761CA1690B988847216A8847F7
:100AE0000028F7D1E1690B988847DBE7A1690B98EB
:100AF00088470746A84201D1761CD3E7E1690B98E5
:100B000088477F1C02D1B8F1000F6FD046E1002763
:100B100062693D463946019890472A2804D16269A6
:100B20000121019890470125DFF884926269012133
:100B300001989047A0F130010A290AD24F45E5DC1F
:100B400007EB870100EB4107303FDFD445F010058C
:100B5000ECE7E90601D46FF000476C280AD04C2876
:100B600014D0682815D06A280DD074281CD07A2893
:100B70001AD01DE062690121019890476C2802D0CB
:100B800045F0040514E045F002050DE045F02005B0
:100B90000AE06269012101989047682802D045F077
:100BA000080505E045F40065626901210198904758
:100BB000C4E9015765283DD019DC58287AD00CDCEF
:100BC000452837D004DC252826D0412831D131E012
:100BD00046282FD047282CD12CE05B2877D06128DD
:100BE00028D063287CD0642823D15AE0D0E06F2835
:100BF00048D008DC66281DD067281BD0692821D082
:100C00006E2816D127E0702845D0732868D0752843
:100C100047D078280DD14DE0A1690B98884705464B
:100C200025283FF469AFE1690B9888476D1C3FF4B4
:100C30006AAFB3E023466A466FF001000B9900F0FB
:100C400039F99EE045F040006060A80723464FF068
:100C5000000236D43EE0E8077FF447AF2068011D6C
:100C600021600068290501D506701BE7290701D519
:100C7000068017E7A90703D5F117C0E9006111E75E
:100C800006600FE745F040006060A80723464FF07C
:100C9000080216D41EE040F60E0125EA010060604D
:100CA00016E045F040006060A80723464FF00A02B6
:100CB00007D40FE045F040006060A80708D5234640
:100CC00010226FF001000B99AFF3008059E007E0AC
:100CD000234610226FF001000B99AFF3008050E023
:100CE0004FF000094F464B46632802D05B2806D0E0
:100CF00040E0E80601D40120A06001273AE06269E3
:100D00000121019890475E2805D14FF001096269E1
:100D1000494601989047216939B900210A4653464E
:100D200043F82120491C0829FADBB0B3216969B9CD
:100D3000C11700EBD16253110AEB830122F01F02AD
:100D4000821A01200B68904003430B606269012105
:100D5000019890475D28E8D1B9F1000F09D0002033
:100D6000514651F82020D24341F82020401C082849
:100D7000F7DB02AB224600976FF001000B99FFF7FB
:100D800033FB00280CDA401C08D1BBF1000F05D062
:100D90004FF0FF300DB0BDE8F08FFFE74046F9E7B8
:100DA000E90701D108F1010806444FF0000B79E68C
:100DB000CCCCCC0C2DE9FF4F087881B09946FF28A8
:100DC00005D0491C2D2804D00024002308E000236E
:100DD0000BE00124F9E703EB830300EB4303491C19
:100DE0000878FF28F7D104B15B4200200090147806
:100DF00001462D2C01D02B2C04D1521C2D2C12D0AD
:100E00000024009400251678FF2E0ED00A24A0FBA3
:100E100004C801FB0481002700FB0711521C16EBDC
:100E20000C006941EFE70124EBE7994450EA010225
:100E30000ED00024AA4D2646DFF8A88200F0C8F99B
:100E400082468B46B9F1000009DAC9F100071BE0C0
:100E500001980021C0E9001105B0BDE8F08F0746F8
:100E600012E0F80707D022462B4630464146FFF7EE
:100E7000CFFC0646884622462B4610461946FFF709
:100E8000C7FC04460D467F10002FEAD1B9F1000FD0
:100E9000324643465046594602DAFFF72BFD01E041
:100EA000FFF7B6FC009A0AB181F00041019AC2E94D
:100EB0000001D1E72DE9FF4F1F468DB0D7E901466C
:100EC0004FF0FF382E2045464FF000090B90B969CE
:100ED0006D1C0E988847396A824688470028F6D1EB
:100EE000BAF1FF3F0AD024F4D064002E11DDBAF12C
:100EF0002B0F08D0BAF12D0F0BD102E0404611B0F4
:100F0000ABE744F48064B9696D1C0E98884782464B
:100F1000761E6946600501D52D2000E02B208DF856
:100F2000000001F1010B0DF1200809E0B9696D1C09
:100F30000E98884782460F9844F40074761E056028
:100F4000002E02DDBAF1300FF0D00B998A453ED168
:100F500044F0800406E00F99681CA9F1010944F4EB
:100F600000740860B9696D1C761E0E988847824629
:100F70003028F0D02BE00B998A4505D1200603D408
:100F800044F08004761E18E0504609F003FD08B3D3
:100F90000DF11301761E44F400748B4508D2AAF1BA
:100FA00030000BF8010B200607D5A9F1010003E082
:100FB000200602D409F101008146A00502D50F994F
:100FC000681C0860B9696D1C0E9888478246002E1F
:100FD000D1DC53E0002E51DDBAF1650F02D0BAF139
:100FE000450F4BD1A00549D5B9696D1C24F4407457
:100FF000761E0E9888478246002E0CDD2B2804D0E2
:10100000BAF12D0F07D144F48074B9696D1C0E98A4
:1010100088478246761EE00501D52D2100E02B2170
:1010200008F8011BCDF82C8021E00DF12901761E76
:1010300044F4007488450CD2AAF1300010F0FF008F
:1010400088F8000002D10B99884509D908F10108F8
:1010500006E0E00501D5244801E042F20F70814628
:10106000B9696D1C0E98884782460F980560002E5E
:1010700004DD504609F08EFC0028D6D1F9690E989F
:101080008847FF208BF8000088F8000000200690B9
:1010900007904B466A4608A906A8FFF78BFEA005F5
:1010A00002D46FF001002AE714F0240F0AD0E00701
:1010B00014D1DDE906123868031D3B600068C0E901
:1010C00000120BE0DDE9060100F08EF80146E007B2
:1010D00004D13868021D3A600068016028460EE7B6
:1010E000000024400000F03FF1D8FFFF10B5141EAF
:1010F00073F1000408DA401C41F1000192185B41D1
:101100001A4301D120F0010010BD2DE9F04D9246A7
:101110009B4611B1B1FA81F202E0B0FA80F22032BE
:101120009046FFF7F5F904460F4640EA0A0041EA07
:101130000B0153465A46084313D0114653EA0100A7
:1011400019D0C8F140025046FFF7F1F905460E46A6
:10115000504659464246FFF7DBF9084305D00120C7
:1011600004E020463946BDE8F08D0020054346EAFC
:10117000E0762C4337430A986305E40AA0EB0800A5
:101180000022FD0A44EA47540A3002D500200146F5
:10119000E9E7010510196941DDE9084500196941D0
:1011A000BDE8F04DA2E700007F2801D9002208E049
:1011B000064A02EB5002C007127800D1120902F071
:1011C0000F020120904008407047000014B9000849
:1011D0000EB540F2334202920022CDE900221346BE
:1011E000FFF793FF03B000BD01F0004330B421F0DE
:1011F000004150EA010206D00A0DA2F56072C1F367
:101200001301002A02DC30BC00207047440F44EA7E
:10121000C104C100E01830BC00EBC250FFF71ABA9D
:1012200070B53A4905460068884202D0384A904273
:1012300002D1D1F8080302E03648D0F8080310F4D0
:10124000403F11D003F078FF04466868B0F5803F56
:1012500006D0B0F5003F03D0B0F5403F27D101E004
:10126000000C18E0A40822E000214FF4002002F056
:10127000FBFF044668688103890B18D181140C298F
:1012800015D2DFE801F0140606060606060B0D0F60
:101290001113800C4000B4FBF0F408E0240906E0D0
:1012A000640904E0A40902E0E40900E0240A02F071
:1012B000B9FC41F20301884208D8174884422868E3
:1012C000816813D821F48071816070BD1349600872
:1012D000884204D82868816821F44071F4E71049F5
:1012E000884206D82868816821F4407141F48071F1
:1012F000EAE70C4988422868816804D821F44071E3
:1013000041F40071E0E741F44071DDE70020024064
:101310000021024000600258002D3101105E5F0084
:1013200020BCBE0040787D0110B5846B616D11F06A
:10133000500F06D0616DC90625D5204600F0ACFFE0
:1013400010BD606D40F40070606520680168090799
:1013500007D506F07BF990B12068C068800403D5FA
:101360000DE0C06880070AD1606D20F48070606570
:10137000606DC00403D4606D40F0010060652046DC
:1013800000F088FF10BDE16CC96CBDE81040084753
:1013900010B5806B416D41F040014165816D41F0B8
:1013A0000401816500F078FF10BD10B5806B00F07E
:1013B00072FF10BD70B50446006881688268C1F391
:1013C000400112F0010F28D039BB816801F00D01F6
:1013D000012914D18168124A1140891C8160216859
:1013E0000320086002F024FC054612E002F020FC15
:1013F000401B02280DD920688068C00709D0606DA5
:1014000040F010006065A06D40F00100A065012073
:1014100070BD20688068C007E8D1002070BD000062
:10142000C0FFFF7F70B504460068816811F0010FAE
:1014300040D18168204A11422DD18168D54329408D
:10144000491C816002F0F4FB1C49064620681C4BD5
:10145000884201D0984201D11A4A00E01A4A9268A3
:10146000984202F01F0200D0014681421DD0E2B135
:1014700020E0816811F0010F03D181682940491CE7
:10148000816002F0D5FB801B02280ED9206800681D
:10149000C043C00709D0606D40F010006065A06DCA
:1014A00040F00100A065012070BD20680168C943BB
:1014B000C907DED1002070BD3F000080002002403F
:1014C0000021024000230240006302588268C36882
:1014D000F0EE400A00EE102A01EE103A4168026870
:1014E00020EE010A02EE101A036901EE102A02EE44
:1014F000200A01EE903A10EE902AC26001EE210A15
:1015000010EE101A01617047F0EE412AB0EE602A29
:10151000F0EE400A10B5B0EE620A0446143005F051
:10152000E9FF2046BDE81040F0EE420AB0EE620A44
:1015300006F0D6B810B504461430FFF7C7FF2046B2
:10154000BDE81040FFF7C2BFFEE7000070B50446DB
:101550002DED028BD0F85E60D0F86210D0F86650A6
:10156000D0F86A20D0F85600D4F85A3000EE100AAD
:1015700000EE903A701B61EB020130EE608A50EA97
:10158000010218D0FEF7A0FF00EE100ADFED0D0AF1
:1015900020EE201A88EE010AB7EE001A10EE101A9B
:1015A00000EE100AC4F86E1060EE200A81EE200AE8
:1015B00010EE100A02E00020C4F86E00A060BDEC3E
:1015C000028B70BD5F70893070B500250446007EC7
:1015D000012638B1012841D0022866D0BDE870400C
:1015E00000F055BB65762676206800684562606825
:1015F000A8B1042819D0082820680068016A1AD008
:1016000021F4204101626068C0B104281CD0082880
:1016100020680068016A1ED041F4005119E020687A
:101620000068016A21F00A01ECE720680068016A9D
:1016300021F0A001E6E721F42061E3E720680068DB
:10164000016A41F0020104E020680068016A41F08B
:101650002001016270BD41F40071FAE76168206801
:1016600005F044FA206102212176606870B10428F7
:1016700012D0082820680068016A13D021F42041A4
:101680000162606820680068016AE2E7206800681B
:10169000016A21F00A01F3E720680068016A21F07D
:1016A000A001EDE721F42061EAE76168206805F018
:1016B0001DFA60616168206804F069FF257666762E
:1016C000D4F85E00D4F86210C4F86600C4F86A105A
:1016D00009F036FEC4F85E00C4F8621020680068A5
:1016E000456270BD014801F0D1BA00009C0300249E
:1016F000014801F0CBBA000014040024014801F0B5
:10170000C5BA0000C4090024014801F0BFBA0000B6
:101710003C0A0024014801F0B9BA00009C020024F0
:10172000014801F0B3BA00005C080024014801F050
:10173000ADBA0000D4080024014801F0A7BA0000A7
:101740004C090024294A016891423AD0274A1832AC
:10175000914236D0254A3032914232D0234A483223
:1017600091422ED0214A603291422AD01F4A7832CB
:10177000914226D01D4A9032914222D01B4AA83273
:1017800091421ED01A4A91421BD0194A18329142F6
:1017900017D0174A3032914213D0154A483291423D
:1017A0000FD0134A603291420BD0114A78329142E5
:1017B00007D00F4A9032914203D00D4AA83291428D
:1017C00011D1CAB21823103AB2FBF3F26FF3090138
:1017D000032A02F00703074AD25CC26500D9091D3B
:1017E00081650846704721F0FF01F9E710000240CB
:1017F00010040240D4B8000830B5224A0123016821
:101800009142CAB21BD01F4C1434A14217D01D4CB8
:101810002834A14213D01B4C3C34A1420FD0194CA8
:101820005034A1420BD0174C6434A14207D0154C60
:101830007834A14203D0134C8C34A1420CD1142132
:10184000114C083AB2FBF1F10F4A803201F01F054A
:1018500004EB8101AB4010E00C4D1824103A0D440C
:10186000B2FBF4F1A82D00D80831094A01F01F0499
:1018700002EB8101064AA3408032603080E80E000E
:1018800030BD00000854025800580258F0FBFDBF5C
:101890000008024010B50279531E072B2DD8174CB3
:1018A0000168A1421BD0154C1434A14217D0134C2F
:1018B0002834A14213D0114C3C34A1420FD00F4C1C
:1018C0005034A1420BD00D4C6434A14207D00B4CD4
:1018D0007834A14203D0094C8C34A14203D1084989
:1018E000074C443102E00749064C443104EB8202C4
:1018F000C0E91B2101219940416710BD08540258DD
:10190000FC580258FC08024010B583694FF0C074BF
:10191000826A0146002053B1B3F5005F15D072B161
:10192000012A0CD0022A0AD0032A09D104E01AB1F4
:10193000012A06D0022A03D1C96AC90100D50120B3
:1019400010BDC96AA142FAD010BD002AF7D0012A01
:10195000F2D0022AF3D0032AF3D010BD2DE9F04FC4
:10196000804E804FDFF8FC911836DFF8F8A1483739
:101970000468856D0AF1300ADFF8ECB14C45DFF8F8
:10198000ECC1DFF8ECE16DD0B4426BD0544569D0C6
:10199000BC4267D0DFF8D081A8F11808444561D077
:1019A0005C455FD064455DD074455BD0DFF8C48191
:1019B000444557D0DFF8BC8108F11808444551D0A0
:1019C000DFF8B08108F1300844454BD0DFF8A4813E
:1019D00008F14808444545D0DFF8988108F16008CF
:1019E00044453FD0DFF88C8108F17808444539D070
:1019F000DFF8808108F19008444533D0DFF8748126
:101A000008F1A80844452DD0DFF86C81444529D061
:101A1000DFF8648108F11408444523D0DFF85881C9
:101A200008F1280844451DD0DFF84C8108F13C0836
:101A3000444517D0DFF8408108F15008444511D0E3
:101A4000DFF8348108F1640844450BD0DFF82881C1
:101A500008F17808444505D0DFF81C8108F18C08AE
:101A6000444509D1D0E91948C4F80480C46E1CB1BA
:101A7000D0E91C48C4F8048004684C452ED0B44218
:101A80002CD054452AD0BC4228D0374E183EB44200
:101A900024D05C4522D0644520D074451ED0354EFC
:101AA000B4421BD0334E1836B44217D0314E3036C4
:101AB000B44213D02F4E4836B4420FD02D4E60366C
:101AC000B4420BD02B4E7836B44207D0294E903614
:101AD000B44203D0274EA836B44215D190F85C60CA
:101AE0003F2406F01F06B440AC600468256825F466
:101AF000802525602EE09A600068C160BDE8F08F07
:101B000099600068C260F9E71B4EB4421BD01A4EC0
:101B10001436B44217D0184E2836B44213D0164E9D
:101B20003C36B4420FD0144E5036B4420BD0124E55
:101B30006436B44207D0104E7836B44203D00E4E0D
:101B40008C36B442DAD190F85C60012406F01F06AE
:101B5000B4406C60046863608368402B0368CFD135
:101B6000C9E700001000024088000240A0000240C7
:101B7000B8000240100402400854025870470000A8
:101B800010B5044600F06AF8D4F84210D4F83E00CC
:101B900000EE901A00EE100A2B4A30EE600A10EEAA
:101BA000101A914203DDD4F84A10491E07E010EEE6
:101BB000101A264A914204D9D4F84A10491CC4F894
:101BC0004A10D4F84610D4F84A2000EE100A01EE6C
:101BD000101A00EE902ADFED1E1A30EE410AF8EEE0
:101BE000E00A00EEA10A10EE100AC4F84E0000EE62
:101BF000100A04F19E0007F04DFD10EE100ADFED13
:101C0000150A9FED151A00EE100AC4F85200D4F818
:101C1000560060EE200AC4F85A00204680EE810A81
:101C200010EE101AC4F85610FFF790FCD4F86E00AE
:101C300000EE100A04F17600FFF77CFC10EE100AAB
:101C4000C4F8720010BD000000003443000034C32B
:101C50000000B443DB0F49400000344310B5044694
:101C6000D0F83E00C4F84200D4F85E10D4F8620008
:101C7000C4F86610C4F86A003E3405F059FC10EE52
:101C8000100A206009F05CFB2062616210BD72B630
:101C9000FEE7000010B5064C00210460416010EE24
:101CA000102A816010EE903AC1600261436110BD5C
:101CB0000AD7A33CF8B50027044615460E46009700
:101CC00090F8500001280BD0012084F850002046E5
:101CD000FFF770FB0100606D04D040F010002DE0B4
:101CE0000220F8BD20F4885040F0020060652068B2
:101CF00006F4803205F08043134D1A4383682B406D
:101D00001A4342F000428260104A20680EE0009BB5
:101D10005B1C0093934209D3606D84F8507020F0EF
:101D2000020040F0100060650120F8BD8368DB0F01
:101D3000EDD1606D20F0020040F0010060650846C2
:101D400084F85070F8BD0000C0FFFE3F00F8C325C6
:101D50002DE9F0470F4690F850109AB0044601293B
:101D60004FF0000922D00026DFF8F480012084F82B
:101D70005000159616962168414519D1394D0095A8
:101D8000284605F05FFC8246206805F05BFC50EABF
:101D90000A0115D0616D4FF0010941F02000606526
:101DA000484684F850601AB0BDE8F0870220FAE790
:101DB000606D84F8506040F0200060650120F2E71B
:101DC00020684146884201D0A84201D1264800E05F
:101DD000264840F61F72D7F800C0254BBCF1000F13
:101DE00023D0D0F808C0D7F804802CF4404C4CEA3B
:101DF000080CC0F808C0D4F800C08C4501D0AC4530
:101E000007D18968AB6801F0010103F001031943B0
:101E100002E0996801F001010029C1D1BD6839686B
:101E2000836829439343194317E0876827F44047A1
:101E3000876027688F4201D0AF4207D18968AB68BD
:101E400001F0010103F00103194302E0996801F078
:101E500001010029A4D1816891438160A0E70000BD
:101E6000002002400021024000230240006302588B
:101E7000006002582DE9F84F0446EB4E0020DFF8D1
:101E8000ACB30090002794F850000D46DFF8A0A3F3
:101E9000012808D04FF0010984F85090206805F01F
:101EA000CDFB18B171E10220BDE8F88F2868002849
:101EB0000EDB21680303CA6928D090FAA0F0B0FABB
:101EC00080F000BF00F01F0309FA03F00243CA616B
:101ED000D5E900124FF00C0C20681F23C1F3846178
:101EE0000CEA921C02F01F02604493409140026B86
:101EF0009A430A430263206805F0A0FB80462068ED
:101F000005F098FB58EA000003D08DE0C0F3846030
:101F1000D8E72A68042320684FF0070CA96803EA71
:101F2000D25318444369C2F304520CFA02FC9140A4
:101F300023EA0C030B434361BE490968B9EB117FE7
:101F400006D121686869C968C1F38201490008E0C7
:101F50002068C168C906C1686869F5D501F010013B
:101F600049088840296904292ED023682A6803EB90
:101F7000810102F0F8420B6E024303F0004010436F
:101F80000866697E22682869012917D05FF0000180
:101F900002EB8000026E22F000420A430266297EB4
:101FA00020682A6901290CD00021036902F01F0270
:101FB000914023F4F0420A43026135E04FF00041C2
:101FC000E6E74FF40061F0E720682978026E02F03E
:101FD000F842B2EB816F03D1016E21F0004101663E
:101FE00020682978426E02F0F842B2EB816F03D18B
:101FF000416E21F00041416620682978826E02F02E
:10200000F842B2EB816F03D1816E21F0004181660D
:1020100020682978C26E02F0F842B2EB816F03D1DA
:10202000C16E21F00041C1662068816811F0010F86
:1020300072D150F8C03F2A7BDFF8FCC1296802F05A
:1020400018022CFA02FCC1F3130823EA08030CEA75
:10205000010C43EA0C030360E96859456CD17748E9
:102060002268DFF8DCC1DFF8DCB18242DFF8D8E1BA
:102070007648774BDFF8DC8122D12968614524D08E
:10208000B1EB4C0C38D0A1F1496CBCF1080C35D047
:10209000A1F1865CBCF1100C32D0DFF8BCC1614507
:1020A00028D071453AD0814230D0994232D06B4825
:1020B000814201D16A4831E041452ED169482DE085
:1020C000B2422AD12968614501D1012026E0A1F15F
:1020D000066CBCF1040C0FD0A1F1496CBCF1080CEA
:1020E0000CD0A1F1865CBCF1100C09D0DFF868C1FE
:1020F000614507D15C4811E058460FE05B480DE0B0
:102100005B480BE0714509D0814201D1184605E0DA
:102110009942D1D1574801E03CE00020D169030346
:102120001AD090FAA0F0B0FA80F000BF00F01F03C0
:1021300009FA03F00143D161D5F800C0BCF1000FEA
:1021400028DA3E4B20684C49DFF83091984201D0A4
:10215000B04203D10A4602E0800EE7E74A469268A1
:10216000984202F0E07201D0B04209D19D68D6F8E1
:10217000088005F0010508F0010845EA080503E0BC
:10218000DAF8085005F001054DB1606D012740F007
:1021900020006065002084F85000384684E6384D01
:1021A000AC451CD115021AD45045F3D1984202D047
:1021B000B04200D049468B6842F4000023F0E07240
:1021C00002438A6030492F480968B1FBF0F04000B3
:1021D000801C00E0401E00900028FBD1DAE72B4D68
:1021E000AC450CD1D5010AD45045D3D1984202D088
:1021F000B04200D049468B6842F080700EE0244D1A
:10220000AC45C7D15502C5D45045C3D1984202D080
:10221000B04200D049468B6842F4800023F0E0725F
:1022200002438A60B6E70000002102400000FF4739
:10223000006002580010005CFFFF0F000020024009
:1022400002003004400020190004002A0008302E4B
:10225000001060320000844B2000F0140000214385
:10226000000052470000B84F0002B0258000501D0A
:1022700000018021002090360023024000630258B4
:10228000000084CB400D030024000024000052C74E
:102290000000B8CF7047704770470000F8B54FF0A6
:1022A000000604003546009602D0606D10B107E0CC
:1022B0000120F8BD204600F005F9A66584F85060BD
:1022C00020688168C1F3407119B18168704A11407A
:1022D000816020688168C1F3007181B981686D4AAD
:1022E000114041F0805181606C496B480968B1FB35
:1022F000F0F0401C00E0401E00900028FBD1206858
:102300008168C1F3007141B9616D012541F010018F
:102310006165A16D41F00101A16505F08FF9616D65
:1023200001F010010143606D03D0012540F0100061
:1023300092E020F4807040F00200606520688168BF
:1023400011F0010F1FD1564A564B904201D09842CE
:1023500007D191689E6801F0010106F00106314342
:1023600003E05149896801F0010161B9904201D04F
:10237000984201D14D4800E04D488268616822F4DE
:102380007C120A43826001F04DFC41F20301884255
:1023900002D9A06810280CD0617D227FA368206B31
:1023A000490341EA024118430843217F01290CD027
:1023B00010E0607D227F216B400340EA024241F041
:1023C0001000104340F00C00EFE7218C394A02EB7B
:1023D00041410843616A29B1A26A01F4787101435D
:1023E00042EA01002168344BCA681A400243CA60BD
:1023F000206805F023F90646206805F01BF93043F4
:102400001DD1206844F20303267DE16AC26841EAD7
:1024100086319A430A43C26094F8380001281ED0DE
:102420002068016921F0010101612068626B016986
:1024300021F07041114301612046FEF7F1FEE06892
:10244000012820681CD0016B21F00F010163606D31
:1024500020F0020040F0010060652846F8BD2068C9
:10246000A38F164FD4E9101C154E07EB0347A26C3F
:10247000036941EA0C013A43334011431943D3E75E
:10248000A269016B521E21F00F011143DEE700002B
:10249000C0FFFF5FC0FFFF7F400D0300240000244A
:1024A0000020024000210240006002580023024048
:1024B000006302580000FEFF03C0F0FF0100FFFFB1
:1024C0001EF800FCF0B5B7B00646142130A8FDF7A1
:1024D0004FFFC0216846FDF74BFF2B49306888420B
:1024E0004FD100224FF0200C0220154601234FF45B
:1024F00000218DE80E001224CDE90340C027299267
:1025000006AA05907901099182E88110684602F0D7
:102510000FF808B1FFF7BBFB1C48016841F0200130
:102520000160006800F0200035901848083001680C
:1025300041F001010160006830AA032100F00100B0
:102540003590402082E82300114830A901F042FA7A
:10255000104C092110484FF4807C021584E82300B8
:10256000D700C4E90352C3142046C4E907C5656215
:10257000C4E9053700F0FEFE08B1FFF788FBF464FC
:10258000A66337B0F0BD000000200240D8440258D6
:10259000000002589C020024700002402DE9F04720
:1025A000384E044600689146DFF8DC808A46B04227
:1025B00001D0404501D1354900E03549896801F035
:1025C0001F0505F03BF8002859D194F85000012868
:1025D00055D001204FF0000784F8500025B1052D9B
:1025E00002D0092D00D003E02046FEF71BFF18B1F2
:1025F00084F85070BDE8F087616D40F60163206893
:102600009943404541F48071616500D00646864299
:1026100000D01DB9606D20F480106065606DC0044D
:1026200004D5A06D20F00600A06500E0A7651C2081
:10263000E16C184ACA63E26C17491164E26C1749ED
:10264000D1642168086084F850702068416841F0C6
:10265000100141602068E16AC26822F003020A4367
:10266000C26021684B46E06C5246403101F064F88C
:1026700021680B4B8A681A40121D8A60BAE7022053
:10268000B8E7000000200240002102400023024081
:102690000063025829130008AB13000891130008C7
:1026A000C0FFFF7F2DE9F84F044601F0C1FA00900A
:1026B0003CB194F83500022806D0802161650020E5
:1026C000E4E00120BDE8F88FC74DC74EC649183574
:1026D00020683036DFF81483DFF814938842DFF87F
:1026E00014A3DFF814B32ED0A8422CD0B0422AD0C5
:1026F000404528D0484526D0504524D0584522D0C2
:10270000BD4A183290421ED0BC4A90421BD0BB4AF0
:102710001832904217D0B94A3032904213D0B74A9B
:10272000483290420FD0B54A603290420BD0B34A43
:102730007832904207D0B14A9032904203D0AF4AEB
:10274000A832904209D1026822F01E02026020687D
:10275000426922F08002426103E0026822F00E0228
:10276000026027688F4238464DD0A8424BD0B04215
:1027700049D0404547D0484545D0504543D05845BD
:1027800041D09D4A183290423DD09C4A90423AD066
:102790009A4A1832904236D0984A3032904232D01B
:1027A000964A483290422ED0944A603290422AD0C3
:1027B000924A7832904226D0904A9032904222D06B
:1027C0008E4AA83290421ED08D4A90421BD08C4A2D
:1027D0001432904217D08A4A2832904213D0884A45
:1027E0003C3290420FD0864A503290420BD0844AFD
:1027F0006432904207D0824A7832904203D0804AB5
:102800008C32974204D1206E026822F480720260FA
:1028100075492068884228D0A84226D0B04224D0EA
:10282000404522D0484520D050451ED058451CD0A8
:1028300071491831884218D07049884215D06F49C3
:102840001831884211D06D49303188420DD06B4922
:102850004831884209D069496031884205D06749CA
:102860007831884201D065499031016821F0010139
:1028700001600EE001F0DCF90099401A052808D942
:10288000202262650321002084F8351084F834008A
:1028900017E73868C007EDD1534A012120689042FC
:1028A0002ED0A8422CD0B0422AD0404528D048454E
:1028B00026D0504524D0584522D04F4B183398424B
:1028C0001ED04E4B98421BD04C4B1833984217D019
:1028D0004A4B3033984213D0484B483398420FD07C
:1028E000464B603398420BD0444B7833984207D024
:1028F000424B9033984203D0404BA833984208D1C2
:1029000094F85C703F23A06D07F01F07BB40836005
:1029100007E094F85C30A06D03F01F0301FA03F3A5
:102920004360206890424DD0A8424BD0B04249D07D
:10293000404547D0484545D0504543D0584541D003
:102940002D4A183290423DD02C4A90423AD02B4A20
:102950001832904236D0294A3032904232D0274A3B
:10296000483290422ED0254A603290422AD0234AE3
:102970007832904226D0214A9032904222D01F4A8B
:10298000A83290421ED01E4A90421BD01C4A1432DC
:10299000904217D01A4A2832904213D0184A3C323B
:1029A00090420FD0164A503290420BD0144A6432F3
:1029B000904207D0124A7832904203D0104A8C32AB
:1029C00090420BD1D4E919024260E06E30B1026846
:1029D00022F480720260D4E91C024260002084F874
:1029E000351084F834006DE61000024058000240B3
:1029F0007000024088000240A00002401004024023
:102A0000085402582DE9F05F28B190F835100229DA
:102A100004D0802141650120BDE8F09F904C904B8F
:102A20000168183C18338E4ADFF83C92A1428D4C65
:102A3000DFF838E28E4FDFF83CB2DFF83CA28F4D72
:102A40008F4E31D091422FD099422DD0A1422BD020
:102A5000494529D0714527D0B94225D0DFF810C2A9
:102A60000CF1180C61451FD0DFF808C2ACF1600C06
:102A7000614519D0DFF8FCC1ACF1480C614513D0B9
:102A8000DFF8F0C1ACF1300C61450DD0DFF8E4C1E6
:102A9000ACF1180C614507D0594505D0514503D01C
:102AA000A94201D0B1422CD1DFF8B4C14FF00408E3
:102AB00080F83580ACF1180C61451DD091421BD0D7
:102AC000994219D0A14217D0494515D0714513D06C
:102AD000B94211D06648183081420DD0654860383F
:102AE000814209D063484838814205D06148303876
:102AF000814201D05F481838086820F00100086062
:102B0000ABE0D1F800C02CF00E08DFF854C1C1F8DA
:102B10000080ACF1180C0168614527D0914225D0A6
:102B2000994223D0A14221D049451FD071451DD0E3
:102B3000B9421BD0DFF838C10CF1180C614515D033
:102B4000DFF830C1ACF1600C61450FD0DFF824C173
:102B5000ACF1480C614509D0DFF818C1ACF1300C7C
:102B6000614503D0DFF80CC1ACF1180CD1F800C0FE
:102B70002CF0010CC1F800C0DFF8E4804FF0010C2C
:102B80000168A8F11808414546D0914244D09942C5
:102B900042D0A14240D049453ED071453CD0B942D7
:102BA0003AD0334A1832914236D0324A603A914292
:102BB00032D0304A483A91422ED02E4A303A914291
:102BC0002AD02C4A183A914226D0594524D0514552
:102BD00022D0A94220D0B1421ED02A4A91421BD015
:102BE000284A1432914217D0264A2832914213D0F3
:102BF000244A3C3291420FD0224A503291420BD0AB
:102C0000204A6432914207D01E4A7832914203D062
:102C10001C4A8C32914218D1016E0A6822F48072EB
:102C20000A6090F85C20816D02F01F020CFA02F23B
:102C30004A60D0E919124A60C16E31B10A6822F4C3
:102C400080720A60D0E91C124A600022016D80F88F
:102C500035C080F8342001B188470020DCE6000050
:102C600028000240580002407000024088000240E4
:102C7000A00002407004024088040240A004024008
:102C8000B804024008540258406D70472DE9FC5FBB
:102C90000446F74E0020DFF8D88300904FF4165218
:102CA000F44808F11808A56DDFF8C493DFF8C0A355
:102CB000016809F1300920680AF1480AB1FBF2F114
:102CC000B04201912F68D5F800C0DFF8ACB335D021
:102CD0004146884232D0484530D050452ED05845E4
:102CE0002CD0E5491831884228D0E3493031884258
:102CF00024D0E1494831884220D0E04988421DD0A3
:102D0000DE491831884219D0DC493031884215D06B
:102D1000DA494831884211D0DFF860E30EF1600EE5
:102D200070450BD0D54A7832904207D0D34B9033C0
:102D3000984203D0D149A83188427DD194F85C20D3
:102D4000082102F01F0201FA02F23A424AD0B042D0
:102D500032D0404530D048452ED050452CD0584533
:102D60002AD0C54A1832904226D0C34A3032904207
:102D700022D0C14A483290421ED0C04A90421BD055
:102D8000BE4A1832904217D0BC4A3032904213D01B
:102D9000BA4A483290420FD0B84A603290420BD0C3
:102DA000B64A7832904207D0B44A9032904203D06B
:102DB000B24AA832904203D1026802F0040202E053
:102DC000026802F008026AB1026822F0040202609E
:102DD00094F85C0000F01F008140A960606D40F035
:102DE0000100606594F85C00012100F01F00814043
:102DF000394240D02068B04234D0404532D04845B6
:102E000030D050452ED058452CD09B4A1832904295
:102E100028D0994A3032904224D0974A4832904282
:102E200020D0964A90421DD0944A1832904219D030
:102E3000924A3032904200E0AFE113D08F4A4832DC
:102E400090420FD08D4A603290420BD08B4A78323C
:102E5000904207D0894A9032904203D0874AA832E4
:102E600090427DD1406910F0800F04D0A960606D60
:102E700040F00200606594F85C00042100F01F003F
:102E8000814039423ED02068B04232D0404530D0F7
:102E900048452ED050452CD058452AD0764A183275
:102EA000904226D0744A3032904222D0724A483240
:102EB00090421ED0714A90421BD0704A1832904204
:102EC00017D06E4A3032904213D06C4A483290424A
:102ED0000FD06A4A603290420BD0684A78329042F2
:102EE00007D0664A9032904203D0644AA83290429A
:102EF0004ED1006810F0020F04D0A960606D40F060
:102F00000400606594F85C00102100F01F0081400F
:102F1000394258D02068B04234D0404532D048457C
:102F200030D050452ED058452CD0534A18329042BC
:102F300028D0514A3032904224D04F4A48329042F1
:102F400020D04E4A90421DD04C4A1832904219D09F
:102F50004A4A3032904215D0484A4832904200E006
:102F600014E00FD0454A603290420BD0434A783289
:102F7000904207D0414A9032904203D03F4AA83253
:102F8000904207D1006800F0080006E0006872E790
:102F90000068B7E7006800F00400A0B1A9602068ED
:102FA0000168490304D50068000308D5A16C07E057
:102FB0000168C90503D4016821F008010160216C92
:102FC00009B12046884794F85C00202100F01F00DA
:102FD0008140394279D02068B04232D0404530D06B
:102FE00048452ED050452CD058452AD0224A183278
:102FF000904226D0204A3032904222D01E4A483297
:1030000090421ED01D4A90421BD01C4A183290425A
:1030100017D01A4A3032904213D0184A48329042A0
:103020000FD0164A603290420BD0144A7832904248
:1030300007D0124A9032904203D0104AA8329042F0
:1030400003D1006800F0100002E0006800F0020008
:10305000B0B3A96094F835000428206801680FD047
:1030600049037ED5006800032BD4616C2AE0000080
:1030700010000240240000247000024010040240AE
:1030800021F0160101602068416921F08001416151
:10309000206C08B9A06C20B12068016821F00801FB
:1030A000016094F85C303F21012003F01F030022EF
:1030B0009940A96084F8350084F83420216D65E0DA
:1030C00003E0E16B09B120468847606D00287DD0A0
:1030D000606DC00759D02068042184F83510B042D3
:1030E0002BD0404529D0484527D0504525D05845BC
:1030F00023D09D49884220D09B49183188421CD05A
:1031000099493031884218D09849884215D097495A
:103110001831884211D09549303188420DD09349F9
:103120004831884209D091496031884205D08F49A1
:103130007831884201D08D499031016821F0010138
:10314000016020680099019A491C0091914202D8BF
:103150000168C907F6D10068C00710D003200FE04E
:10316000FFE70168C905ACD403680121002223F000
:103170001003036084F8351084F83420A1E701209F
:1031800084F83500002084F83400E16C00291DD05B
:1031900002B02046BDE8F05F0847754988421DD05F
:1031A00073491431884219D071492831884215D0A9
:1031B0006F493C31884211D06D49503188420DD061
:1031C0006B496431884209D0694900E084E0783174
:1031D000884203D066498C3188427DD194F85C8066
:1031E0000427016808F01F0807FA08F717EA0C0F10
:1031F000009746D04F0744D500980F04686003D568
:10320000C8033CD4A16CC1E7880638D42068B0421A
:103210002DD055496039884229D0484527D050459E
:1032200025D0584523D05049884220D04E491831E6
:1032300088421CD04C493031884218D04B498842D2
:1032400015D04A491831884211D048493031884256
:103250000DD046494831884209D0704507D0904288
:1032600005D0984203D04149A831884203D1016872
:1032700021F0080102E0016821F004010160216CE5
:1032800084E7022707FA08F717EA0C0F00974ED0D9
:103290008F074CD500980F04686003D5C80344D449
:1032A000616C73E7880640D42068B0422FD02E4965
:1032B000603988422BD0484529D0504527D0584501
:1032C00025D02949884222D02749183188421ED06A
:1032D00025493031884200E044E018D02349884233
:1032E00015D022491831884211D020493031884206
:1032F0000DD01E494831884209D0704507D0904210
:1033000005D0984203D01949A831884203D10168F9
:1033100021F0140102E0016821F00A01016001219D
:1033200084F83510002084F83400E16B2EE7082281
:1033300002FA08F212EA0C0F14D0090712D501683C
:1033400021F00E01016094F85C100120002201F0D0
:103350001F0100FA01F16960606584F8350084F8A6
:10336000342012E7BDE8FC9F8800024010040240B0
:10337000085402582DE9F05F044600F059FC002C77
:1033800007467DD0E34E022120684FF00308DFF8A6
:1033900088934FF00005DFF884A3B042DFF880B3D4
:1033A00034D0DC4A1832904230D048452ED05045B7
:1033B0002CD058452AD0DA4A1832904226D0D84A22
:1033C0003032904222D0D64A483290421ED0D54A5E
:1033D00090421BD0D34A1832904217D0D14A303293
:1033E000904213D0CF4A483290420FD0CD4A60323B
:1033F00090420BD0CB4A7832904207D0C94A9032E3
:10340000904203D0C74AA83290427DD184F835104B
:10341000B04284F834502ED0BE49183188422AD0A8
:10342000484528D0504526D0584524D0BC491831AD
:10343000884220D0BA49303188421CD0B84948313E
:10344000884218D0B749884215D0B6491831884209
:1034500011D0B449303188420DD0B2494831884248
:1034600009D0B0496031884205D0AE4978318842F0
:1034700001D0AC499031016821F00101016008E000
:1034800027E100BF00F0D4FBC01B052801D9202193
:103490001CE120680068C007F4D104F1080021682D
:1034A000D4E9053C8E4685C809681043D4E907284D
:1034B0001F43636A38439C4F40EA0C001043394075
:1034C00040EA0800042B40EA010003D1D4E90B12C2
:1034D00011430843954909686FF30F01B1F1005F8B
:1034E0000FD36168A1F12902052A08D9163A032AE7
:1034F00005D9083A012A02D94F39032901D840F4E5
:103500008010CEF8000000E023E02068676A406980
:10351000042F20F0070047EA00070DD1D4E90A0183
:10352000074349B12046FEF7EFF928B14020606516
:10353000012184F83510CCE0206847612046FEF771
:1035400001F994F85C203F2102F01F029140816054
:1035500054E0774A90421BD0754B1433984217D0F1
:10356000734B2833984213D0714B3C3398420FD0A1
:103570006F4B503398420BD06D4B6433984207D059
:103580006B4B7833984203D0694B8C3398427DD192
:1035900084F8351084F83450664B0168A26801EA5B
:1035A000030E402A73D0802A72D00022D4E9037817
:1035B000D4E9053142EAD70242EAD8085C4AD4E9A4
:1035C000077C48EAD30848EAD10141EAD7015242D0
:1035D00041EA1C11142341EA0E01016020681044E5
:1035E000B0FBF3F08000E0652046FEF7ABF894F8FE
:1035F0005C20012102F01F02914041602068B0422E
:1036000057D044491831884253D0484551D050458D
:103610004FD058454DD042491831884249D0404991
:103620003031884245D03E494831884241D03D49F9
:1036300088423ED03B49183188423AD0394930312E
:10364000884236D037494831884232D035496031D6
:1036500088422ED03349783188422AD0314990317E
:10366000884226D02F49A831884222D0304988424A
:103670001FD02F49143188421BD02D492831884250
:1036800017D02B493C31884213D002E01DE017E0EF
:1036900018E02749503188420BD0254964318842CF
:1036A00007D023497831884203D021498C318842A0
:1036B00029D12046FEF7A0F8A06880280CD00CE0A5
:1036C000102273E74FF4804270E74021616584F86F
:1036D00035800120BDE8F09F6560216E207908608B
:1036E000D4E9190141606068401E072808D82046C7
:1036F000FEF7D0F8E06E0560D4E91C01416002E0FD
:10370000E566256765670120656584F8350000205A
:10371000E0E7000010000240400002405800024074
:1037200070000240100402403F8010FE0010005C58
:10373000085402580F00FEFF2DE9F84F04008C4694
:103740004FF00000009014D094F83400012812D0FB
:1037500094F835500120002184F83400012D0CD05C
:10376000C00260650120009084F834100098BDE824
:10377000F88F0120FBE70220F9E78C4D0226206834
:1037800084F83560A8428A4D61658A4E8A4FDFF819
:103790002C82DFF82C92DFF82CA2DFF82CB226D096
:1037A000A84224D0B04222D0B84220D040451ED0FA
:1037B00048451CD050451AD0584518D083498842F6
:1037C00015D082491831884211D080493031884261
:1037D0000DD07E494831884209D07C496031884209
:1037E00005D07A497831884201D078499031016812
:1037F00021F00101016061462046FEF7AFF86B49F8
:10380000206888422CD0A8422AD0B04228D0B842A2
:1038100026D0404524D0484522D0504520D0584598
:103820001ED06A4A90421BD0684A1832904217D084
:10383000664A3032904213D0644A483290420FD0E8
:10384000624A603290420BD0604A7832904207D090
:103850005E4A9032904203D05C4AA83290420CD12A
:10386000026822F01E0242F016020260206C88B14B
:103870002068026842F008020BE0026822F00E02A3
:1038800042F00A020260206C20B12068026842F017
:1038900004020260206888424BD0A84249D0B0425E
:1038A00047D0B84245D0404543D0484541D0504527
:1038B0003FD058453DD0454A90423AD0434A18320D
:1038C000904236D0414A3032904232D03F4A48325C
:1038D00090422ED03D4A603290422AD03B4A783204
:1038E000904226D0394A9032904222D0374AA832AC
:1038F00090421ED0364A90421BD0354A1432904234
:1039000017D0334A2832904213D0314A3C32904289
:103910000FD02F4A503290420BD02D4A6432904241
:1039200007D02B4A7832904203D0294A8C329042F9
:103930000DD1206E0268D20303D5026842F4807272
:103940000260E06E18B1026842F480720260206882
:10395000884226D0A84224D0B04222D0B84220D0FB
:1039600040451ED048451CD050451AD0584518D067
:103970001649884215D015491831884211D013498B
:10398000303188420DD011494831884209D00F4961
:103990006031884205D00D497831884201D00B4909
:1039A0009031016841F001010160DFE61000024042
:1039B00028000240400002405800024070000240CF
:1039C00088000240A0000240B800024010040240FB
:1039D000085402582DE9F84F03247D4D00234FF081
:1039E00001094FF0B04B4FF00F0AE9E009FA03F775
:1039F0003A4076D00E7906F00306012E01D0022E51
:103A000018D1D0F808C04FEA430ECE6804FA0EF879
:103A10002CEA080C06FA0EF646EA0C068660D0F888
:103A200004C00E792CEA070CC6F300169E4046EA45
:103A30000C0646600E79F643B6070BD0C6684FEA0F
:103A400043088F6804FA08FC26EA0C0607FA08F710
:103A50003743C7600E7906F00306022E12D1DE0846
:103A60000F694FEA437C00EB8606B646366A4FEA9A
:103A7000DC6C0AFA0CF807FA0CF726EA080637435A
:103A8000CEF820700F7906684FEA430807F0030765
:103A900004FA08FC07FA08F726EA0C063743076021
:103AA0004E6816F4403F1CD04A4E376847F0020774
:103AB000376036689F0706F00206009623F003067B
:103AC00006F1B046B6463F0FD6F80864DFF8088125
:103AD0000AFA07FC404526EA0C0603D14FF0000C19
:103AE00041E06CE0DFF8F4C0604502D14FF0010C1A
:103AF00039E0DFF8ECC0604502D14FF0020C32E053
:103B0000DFF8E0C0604502D14FF0030C2BE0DFF896
:103B1000D8C0604502D14FF0040C24E0DFF8CCC0DF
:103B2000604502D14FF0050C1DE0DFF8C4C06045D0
:103B300002D14FF0060C16E0DFF8B8C0604502D1A4
:103B40004FF0070C0FE0DFF8B0C0604502D14FF036
:103B5000080C08E0DFF8A4C0604502D14FF0090C62
:103B600001E04FF00A0C0CFA07FC4CEA060CCEF808
:103B700008C44F68DBF80060FF0226EA020600D5A1
:103B800016435F46CBF80060D1F804C0DBF8046050
:103B90005FEA8C2C26EA020600D516437E606E682A
:103BA0004F6826EA0206BF0300D516436E602E68F2
:103BB0004F6826EA0206FF0300D516432E605B1C01
:103BC0000A6832FA03F67FF411AFBDE8F88F0000FF
:103BD00080000058F44402580000025800040258C3
:103BE00000080258000C0258001002580014025835
:103BF00000180258001C02580020025800240258E5
:103C00000069084000D001207047426921EA0203A0
:103C10000A4043EA0241816170470AB181617047FD
:103C20000904FBE701480068000C70470010005CC5
:103C3000014880687047000018000024024881682D
:103C4000027811448160704718000024032010B5E9
:103C500000F0D4F801F0B6FA0F4A1049146813685E
:103C6000C4F3032203F00F038A5CC95C02F01F0255
:103C700001F01F01D0400A4A20FA01F11160094900
:103C800008600F2000F010F808B1012010BD00F00E
:103C900079F8002010BD00001844025804B900084B
:103CA000280000242400002470B50D4D0446287817
:103CB000A0B14FF47A71B1FBF0F00A490968B1FB89
:103CC000F0F002F08AF948B9102C07D20022214600
:103CD000501E00F073F800206C6070BD012070BDB4
:103CE0001800002424000024154BF0B5083B42784E
:103CF00013491A600B680A1F23F001030B60436825
:103D00001360057BC67A827A437B2D07847B45EA64
:103D10000665C77B90F809C0067A90F800E045EA8E
:103D2000C24040EA834040EA444040EA074040EA5B
:103D30000C2040EA460040EA0E000860F0BD00009A
:103D4000A0ED00E0BFF35F8F044800210368034A41
:103D500023F48033036070321160704724ED00E07B
:103D6000074A40F00100064970321060086840F4CC
:103D700080300860BFF34F8FBFF36F8F7047000034
:103D800024ED00E0054808B5016841F0020101603A
:103D9000006800F00200009008BD0000F4440258E2
:103DA000002809DB410900F01F028900012001F110
:103DB000E0219040C1F80001704700000E4BF0B4C4
:103DC0001B680D46C3F30223C3F10706042E00D976
:103DD0000426191D072901D2002300E0DB1E01245F
:103DE00004FA06F19C40491E2940641E9940144083
:103DF0002143F0BC06F0D2BC0CED00E0064900F017
:103E0000070210B54FF6FF040868044B204040EA53
:103E100002201843086010BD0CED00E00000FA0518
:103E2000134970B50A68D243520705D5096801F0F5
:103E30000701814213D118E00A6822F00702024309
:103E40000A60FFF7F5FE0A4D4FF47A760446083D06
:103E500007E000BFFFF7ECFE001BB04201D90120D4
:103E600070BD2868C0438004F4D4002070BD0000F9
:103E70000C48025810B501F05FF905490968054A78
:103E8000C1F30211515C01F01F01C84010BD0000D8
:103E90002044025804B900084A4930B5494C0B1D6A
:103EA0000A680C3409681D68246802F0030305F0F1
:103EB0000102C1F30511C4F3CC04002914FB02F282
:103EC00000EE102AF8EE400A76D0414A9FED3E1AE5
:103ED000DFED3E1AB7EE000A23B1012B5AD0022BB8
:103EE00018D15CE0374C283C23689B0612D5394B2F
:103EF000246801EE901A1168C4F3C104F8EE612A37
:103F0000E34001EE903AC1F30801F8EE611A81EE48
:103F1000A22A07E002EE101A1168F8EE422A81EE9A
:103F2000A22A45E001EE901A1168F8EE611A40EEFF
:103F3000811A71EE800A62EE200AC1F3462101EE79
:103F4000101AB8EE411A31EE001AC0EE811ABCEE1A
:103F5000E11A80ED001A1168C1F3064101EE101A52
:103F6000B8EE411A31EE001AC0EE811ABCEEE11A29
:103F700080ED011A1168C1F3066101EE101AB8EE66
:103F8000411A31EE000A80EE801ABCEEC10A80EDC3
:103F9000020A30BD01EE901ADFED0F2A03E001EEB8
:103FA000901ADFED0E2A1168F8EE611A82EEA12A4E
:103FB000C1F30801B6E7FFE70021016041608160BD
:103FC00030BD000028440258000000390024744C21
:103FD000304402580090D0030024744A0024F44A6C
:103FE000494930B5484C0B1D0A68143409681D68EE
:103FF000246802F00303C5F30012C1F30531C4F3D2
:10400000CC04002914FB02F200EE102AF8EE400A5C
:1040100075D03F4A9FED3D1AB7EE000A6BB1DFED58
:104020003D1A012B01D0022B64D002EE101A116848
:10403000F8EE422A81EEA22A21E0334C283C236884
:104040009B0612D5344B246801EE901A1168C4F314
:10405000C104F8EE612AE34001EE903AC1F3080191
:10406000F8EE611A81EEA22A0BE001EE901ADFED64
:104070002B2A00BFF8EE611A116882EEA12AC1F363
:10408000080101EE901A1168F8EE611A40EE811AEB
:1040900071EE800A62EE200AC1F3462101EE101A89
:1040A000B8EE411A31EE001AC0EE811ABCEEE11AE8
:1040B00080ED001A1168C1F3064101EE101AB8EE46
:1040C000411A31EE001AC0EE811ABCEEE11A80ED01
:1040D000011A1168C1F3066101EE101AB8EE411A17
:1040E00031EE000A80EE801ABCEEC10A80ED020AB1
:1040F00030BD04E001EE901ADFED092ABAE7002195
:10410000016041608160F3E72844025800000039F3
:10411000384402580024744A0090D0030024744CA0
:104120000024F44A494930B5484C0B1D0A681C3438
:1041300009681D68246802F00303C5F30022C1F377
:104140000551C4F3CC04002914FB02F200EE102A3E
:10415000F8EE400A75D03F4A9FED3D1AB7EE000ACF
:104160006BB1DFED3D1A012B01D0022B64D002EEC2
:10417000101A1168F8EE422A81EEA22A21E0334C8F
:10418000283C23689B0612D5344B246801EE901A14
:104190001168C4F3C104F8EE612AE34001EE903ADD
:1041A000C1F30801F8EE611A81EEA22A0BE001EEDC
:1041B000901ADFED2B2A00BFF8EE611A116882EE2B
:1041C000A12AC1F3080101EE901A1168F8EE611AF4
:1041D00040EE811A71EE800A62EE200AC1F3462198
:1041E00001EE101AB8EE411A31EE001AC0EE811A33
:1041F000BCEEE11A80ED001A1168C1F3064101EE30
:10420000101AB8EE411A31EE001AC0EE811ABCEE57
:10421000E11A80ED011A1168C1F3066101EE101A6E
:10422000B8EE411A31EE000A80EE801ABCEEC10AE7
:1042300080ED020A30BD04E001EE901ADFED092A9C
:10424000BAE70021016041608160F3E72844025829
:1042500000000039404402580024744A0090D00302
:104260000024744C0024F44A2DE9F04FAD4A054671
:10427000DFF8ACA280F48070DFF8AC9289B0131143
:10428000AA4C0843AAF104064FF0805C4FF0005896
:104290004FEAE2002CD085F400770F4357D0DFF8C7
:1042A00080B285F480670F430BF1080B61D085F471
:1042B00000670F4374D085F480570F436ED085F4A8
:1042C00000570F434FF480394FF4003E67D085F418
:1042D00000270F4371D085F480370F436ED085F4EB
:1042E00080460E436BD085F400420A4368D02AE032
:1042F000DAF8001001F00701052924D2DFE801F007
:1043000075BC7D25B10006A8FFF7C6FD079809B06A
:10431000BDE8F08F6846FFF763FE0098F7E703A853
:10432000FFF700FF0398F2E72068C0F3C10022FA0C
:1043300000F0ECE72268D20571D561456FD11846CF
:10434000E5E74145E3D00020E1E74846DFE7DAF85A
:10435000001001F4E07180294FD004DC002944D022
:104360004029F0D188E0C029EFD0B1F5807FEAD1B3
:1043700077E0DBF8001001F46001B1F5800F3CD06C
:1043800004DC91B3B1F5001FDDD175E0B1F5C00FCC
:10439000DBD0B1F5000FD6D163E001E018E030E0EA
:1043A000DBF8001001F0E061B1F1007F25D008DCFE
:1043B000D9B1B1F1807FC6D15EE049E06CE079E02F
:1043C0009CE0B1F1407FC0D0B1F1806FBBD148E03B
:1043D000DAF8001001F4E041B1F5005F0DD005DC22
:1043E00019B1B1F5805FAED146E094E0B1F5405F20
:1043F000ABD0B1F5804FA6D133E020688000A2D5C4
:104400008DE7DAF8001001F4E021B1F5403F6CD0FF
:1044100006DC61B149457AD0714594D157E037E067
:10442000B1F5802F65D0B1F5A02F8CD10CE000F054
:10443000A5FE6CE76846FFF7D3FD019867E703A880
:10444000FFF770FE049862E721688903F1D47AE7E8
:10445000DBF8001011F440310ED0494510D0714501
:10446000F5D13168256801F040516D077FF562AFE5
:1044700000297FF45FAF57E720680001E7D549E7DF
:1044800020688000E3D503A8FFF74CFE05983EE7BF
:1044900022689203DBD554E7306810F480303AD0BC
:1044A0004845D4D120680001D1D56846FFF798FD72
:1044B00002982CE7DBF8001001F0E041B1F1405F19
:1044C00013D008DC71B1614521D04145BFD12068CE
:1044D0008000B4D437E7B1F1804F0AD0B1F1A04FDA
:1044E000B2D030E7FFF7C6FC11E720684007AED531
:1044F0001AE72068C005AAD521E708E0DAF800101D
:1045000011F04051A0D0614505D041459FD12068B0
:1045100000018FD417E72068800198D5F3E60000EA
:10452000504402580090D0030080BB000044025861
:104530002DE9FE4F0546DFF8E48350F8081B002400
:10454000F64FC943019005F12800264608F12408DA
:10455000009008011DD4A86E50B1B0F5801F0CD09A
:10456000B0F5001F0ED0B0F5401F1ED001240FE0A3
:10457000386840F40030386017E00198022104F0F8
:104580003DFE03E00098022104F0C8FE04000CD0B8
:1045900026462888C043C00523D4A86D05281ED20E
:1045A000DFE800F00C11161B1B00AA6ED8F80010F3
:1045B00021F440111143C8F80010EAE7386840F4CC
:1045C0000030386009E00198002104F017FE03E094
:1045D0000098002104F0A2FE044674B100E001241A
:1045E00026462888C043800528D4E86D80281ED040
:1045F0000CDC90B140280ED114E0AA6DD8F8001060
:1046000021F007011143C8F80010EAE7C02813D0D1
:10461000B0F5807F10D001240FE0386840F40030FE
:10462000386009E00198002104F0E8FD03E00098FB
:10463000002104F073FE04469CB126462888DFF86A
:10464000DC92C04309F12C0940052CD4D5F8A80010
:10465000B0F5800F20D00DDCA0B1B0F5001F0FD158
:1046600015E0EA6DD8F8001021F4E0711143C8F8A4
:104670000010E3E7B0F5C00F13D0B0F5000F10D075
:1046800001240FE0386840F40030386009E00198F8
:10469000002104F0B3FD03E00098002104F03EFE89
:1046A00004467CB126462888C04300052DD4D5F8A1
:1046B000AC00B0F1007F21D00EDCA8B1B0F1807F5A
:1046C00010D116E0D5F8A820D9F8001021F4600127
:1046D0001143C9F80010E6E7B0F1407F13D0B0F104
:1046E000806F10D001240FE0386840F4003038604B
:1046F00009E00198002104F081FD03E00098002109
:1047000004F00CFE044674B126462868C0438001BC
:104710001FD4E86CD8B110280FD0202812D0302830
:1047200015D0012414E0D5F8AC20D9F8001021F000
:10473000E0611143C9F80010E7E7386840F4003041
:10474000386004E00198022104F058FD044674B179
:1047500026462888C043C0042BD4286EB0F5005FDD
:1047600020D00DDCA0B1B0F5805F0FD115E06B4813
:10477000EA6C2030016821F0300111430160E8E764
:10478000B0F5405F13D0B0F5804F10D001240FE09A
:10479000386840F40030386009E00198002104F0E6
:1047A0002DFD03E00098002104F0B8FD04468CB113
:1047B00026462888C043800429D4686EB0F5403F5F
:1047C00023D010DC08B3B0F5803F14D0B0F5003F23
:1047D0000FD115E02A6ED8F8001021F4E041114302
:1047E000C8F80010E5E7B0F5802F0ED0B0F5A02F87
:1047F0000BD001240AE00198012104F0FFFC03E042
:104800000098012104F08AFD044694B126462888C8
:10481000C04340042AD4D5F8B000B0F1405F23D0A3
:1048200010DC08B3B0F1805F14D0B0F1005F0FD19D
:1048300015E06A6ED8F8001021F4E0211143C8F8A1
:104840000010E4E7B0F1804F0ED0B0F1A04F0BD0D4
:1048500001240AE00198012104F0D0FC03E0009853
:10486000012104F05BFD044674B126462888C0434C
:1048700000041FD4286FD8B1B0F1805F0ED0B0F122
:10488000005F10D0012414E0D5F8B020D9F8001052
:1048900021F0E0411143C9F80010E7E7386840F41F
:1048A0000030386004E00198012104F0A7FC0446C0
:1048B00074B126462868C043C0011ED4A86CD0B18C
:1048C00001280ED0022811D0032814D0012413E0AF
:1048D0002A6FD8F8001021F040511143C8F8001099
:1048E000E8E7386840F40030386004E001980221BD
:1048F00004F084FC0446ACB126462868DFF81CB0FE
:10490000C043ABF11C0B400252D40548016841F48E
:1049100080710160FFF78CF9824611E02C44025847
:1049200000480258FA48AA6C016821F003011143BB
:104930000160E2E7FFF77CF9A0EB0A00642835D8B4
:10494000F4480068C005F5D58CBBDFF8C4A3B5F802
:10495000B4100AF1240ADAF8000001F4407100F4FE
:104960004070884211D0DAF80010DAF8002021F403
:10497000407142F48032CAF80020DAF8002022F4B4
:104980008032CAF80020CAF80010D5F8B400B0F59B
:10499000807F1AD1FFF74CF9029012E0FFF748F937
:1049A0000299411A41F2883081420AD903242646ED
:1049B0002878DFF85CA3C0430AF1080AC00721D0B9
:1049C0003CE0DAF800008007E8D5D5F8B410C1F370
:1049D0000120032858460DD0016821F47C51016064
:1049E000B5F8B420DAF80010C2F30B021143CAF88C
:1049F0000010DDE7C84A036802EA111223F47C5173
:104A00001143ECE7E86F182816D005DCA0B10828A0
:104A100008D0102804D10AE020280DD028280BD077
:104A200001240AE00198012104F0E8FB03E000986A
:104A3000012104F073FC044664B126462878C04383
:104A400080071ED4A86F062819D2DFE800F0160CE4
:104A500011161616EA6FDAF8001021F0380111432A
:104A6000CAF80010EAE70198012104F0C7FB03E04F
:104A70000098012104F052FC04467CB100E00124BE
:104A800026462878C04340071FD4D5F8940006284E
:104A900019D2DFE800F0160C11161616AA6FDAF814
:104AA000001021F007011143CAF80010E9E701984E
:104AB000012104F0A3FB03E00098012104F02EFC87
:104AC0000446A4B100E0012426462878C0438006AD
:104AD0002BD4D5F89000B0F1405F24D011DC10B396
:104AE000B0F1805F15D0B0F1005F10D116E0D5F8BD
:104AF0009420D9F8001021F007011143C9F80010E3
:104B0000E3E7B0F1804F0ED0B0F1A04F0BD00124FD
:104B10000AE00198002104F071FB03E000980221F3
:104B200004F0FCFB044694B126462878C0434006B6
:104B30002BD4D5F89C00B0F5406F24D011DC10B315
:104B4000B0F5806F15D0B0F5006F10D116E0D5F834
:104B50009020DAF8001021F0E0411143CAF800106B
:104B6000E3E7B0F5805F0ED0B0F5A05F0BD0012475
:104B70000AE00198002104F041FB03E000980221C3
:104B800004F0CCFB044694B126462878C0430006C6
:104B90002BD4D5F8A000B0F5C04F24D011DC10B351
:104BA000B0F5005F15D0B0F5804F10D116E0D5F804
:104BB0009C20D9F8001021F4E0511143C9F80010ED
:104BC000E3E7B0F5004F0ED0B0F5204F0BD0012435
:104BD0000AE00198002104F011FB03E00098022193
:104BE00004F09CFB044654B126462878C0430007D5
:104BF0001ED4D5F88400B0F5805F0AD00FE0D5F858
:104C0000A020D9F8001021F460411143C9F8001028
:104C1000EBE70098022104F081FB00B10126D5F8F2
:104C20008420DAF8001021F440511143CAF8001032
:104C30002878C043C00613D4D5F89800B0F5807F1B
:104C400005D10098022104F069FB00B10126D5F8D6
:104C50009820D9F8001021F440711143C9F80010D0
:104C60002868C043000316D4D5F8A40038B1B0F5C5
:104C7000803F09D0B0F5003F0BD001240AE0019835
:104C8000002104F0BBFA03E00098022104F046FB87
:104C900004468CB126462868C043400322D4D5F888
:104CA0008800B0F5801F11D0B0F5001F13D0B0F50B
:104CB000401F15D0012414E0D5F8A420D9F8001025
:104CC00021F440311143C9F80010E4E7386840F49A
:104CD0000030386004E00098012104F01FFB044616
:104CE0005CB126462868C043C00323D4286DA8B110
:104CF000B0F5803F17D001241BE0D5F88820DAF802
:104D0000001021F440111143CAF80010EAE7000036
:104D10004C44025800480258CFFFFF00386840F466
:104D20000030386004E00198022104F067FA04467C
:104D3000E4B126462868C043800005D400980221CB
:104D400004F0ECFA00B101262868C04380031BD4AC
:104D5000D5F88000B0B1B0F5807F0FD0B0F5007FFE
:104D600010D0B0F5407F0DD001240CE05A482A6DD8
:104D7000016821F4803111430160DBE7386840F4B9
:104D800000303860ECB326462868C043C00207D420
:104D90006A6FD8F8001021F000411143C8F80010E4
:104DA0002868C043C00008D4D5F8B820DBF800104C
:104DB00021F480411143CBF800102868C0438002E1
:104DC00007D4EA6ED8F8001021F080711143C8F8BA
:104DD00000102868C04340000CD4DBF8001021F418
:104DE0000041CBF80010DBF80010D5F8BC201143CF
:104DF000CBF800102868C04308D437486A6D0168B2
:104E000000E018E021F04051114301602868C043E0
:104E1000000208D4D5F88C20DAF8001021F4400103
:104E20001143CAF8001028790024C04300F00100A3
:104E300020430AD00FE0D5F88020DAF8001021F4E2
:104E400040711143CAF800109EE70198002104F058
:104E5000D5F900B106462879C04300F0020020438E
:104E600005D10198012104F0C9F900B1064628795D
:104E7000C04300F00400204305D10198022104F052
:104E8000BDF900B106462879C04300F00800204370
:104E900005D10098002104F041FA00B106462879B6
:104EA000C04300F01000204305D10098012104F018
:104EB00035FA00B106462879C04300F020000443CB
:104EC00004D10098022104F029FA00B916B101209A
:104ED000BDE8FE8F0020FBE74C4402582DE9F05F4F
:104EE00004000F467ED0DFF83882D8F8000000F0CA
:104EF0000F00B8420CD2D8F8001021F00F0139434E
:104F0000C8F80010D8F8000000F00F00B84269D1CE
:104F10002078844D40070AD52069296801F0700186
:104F2000884204D9296821F0700101432960207862
:104F30007C4E361D00070AD56069316801F07001AA
:104F4000884204D9316821F0700101433160207832
:104F5000C0060AD5A069316801F4E061884204D92D
:104F6000316821F4E061014331602078DFF8B4B1A9
:104F700080060BF1080B0CD5E1695846DBF80020E0
:104F800002F07002914204D9026822F070020A43D2
:104F90000260207880070AD5E068296801F00F01D7
:104FA000884204D9296821F00F0101432960207843
:104FB000C0073ED05B49A2682868183920F47060A9
:104FC000104328606068022818D0032819D00968A7
:104FD000012819D0490700294ADADFF848A1AAF1C7
:104FE000080A00E044E0DAF8002022F00702024359
:104FF000CAF80020FEF71CFE814612E0096889030A
:10500000E9E709688901E6E7C905E4E7FEF710FE6C
:10501000A0EB090141F28830814202D90320BDE8AA
:10502000F09F6168DAF8000000F03800B0EBC10FC3
:10503000ECD1207880070AD5E068296801F00F01DB
:10504000884204D2296821F00F0101432960D8F871
:105050000010404601F00F01B9420BD9016821F060
:105060000F0139430160006800F00F00B84201D021
:105070000120D4E7207840070AD52069296801F08B
:105080007001884204D2296821F07001014329602F
:10509000207800070AD56069316801F07001884204
:1050A00004D2316821F07001014331602078C006DC
:1050B0000AD5A069316801F4E061884204D2316800
:1050C00021F4E06101433160207880060CD5E1696C
:1050D0005846DBF8002002F07002914204D20268C8
:1050E00022F070020A43026000F06CF80E492A6850
:1050F0002B68C2F3032203F00F038A5CC95C02F041
:105100001F0201F01F01D040084A20FA01F111608E
:105110000749086007480068BDE8F05FFEF7C4BDB6
:10512000002000521844025804B900082800002446
:10513000240000241C00002430B500F043F80B4A82
:105140000B490C4B15681468C5F3032204F00F04D7
:105150008A5C095D02F01F0201F01F01D040064A7F
:1051600020FA01F119601060084630BD1844025859
:1051700004B90008280000242400002400B5FFF72B
:10518000DBFF05490968054AC1F30211515C01F0D2
:105190001F01C84000BD00001C44025804B90008AB
:1051A00000B5FFF7C9FF05490968054AC1F30221A7
:1051B000515C01F01F01C84000BD00001C440258B2
:1051C00004B90008454970B545480968434B103B90
:1051D00011F0380208D00111082A03D0102A0BD090
:1051E000182A0BD0084670BD19688906FBD51968C6
:1051F000C1F3C101C84070BD3A4870BD3749374D51
:1052000018310C1D24350A68096826682D6802F0DB
:10521000030406F00102C1F30511C5F3CC0515FB2B
:1052200002F200EE102AB8EE400AE9B32F4ADFED91
:105230002E0AB7EE001A6CB1DFED2D1A012C01D049
:10524000022C43D002EE101A1068F8EE422A81EECA
:10525000A22A1EE01C68A40611D51B6801EE901A54
:105260001168C3F3C103F8EE612AD84001EE900A39
:10527000C1F30800F8EE611A81EEA22A0BE001EEFC
:10528000901ADFED1C2A00BFF8EE611A106882EE5A
:10529000A12AC0F3080001EE900AF8EE611A40EE70
:1052A000201A31EE810A00E015E022EE000A1068B3
:1052B000C0F34620401C00EE900AF8EE600A80EE33
:1052C000201ABCEEC10A10EE100A70BD01EE901A51
:1052D000DFED092AD8E7002070BD00001044025815
:1052E0000090D00300127A000000003930440258C8
:1052F0000024744A0024744C0024F44A2DE9F05F21
:1053000004007DD0FF4F2078FE4D1837DFF8F4936E
:10531000103DC00748D0D9F80000396800F03800C7
:10532000102815D0182803D101F0030002280FD04F
:105330006068B0F5803F12D010B1B0F5A02F18D042
:10534000286820F480302860286820F4802009E054
:105350002868800328D560680028D2D024E0286817
:1053600040F480302860606888B1FEF761FC064632
:1053700009E0286840F480202860F0E7FEF758FC38
:10538000801B64286FD828688003F7D50CE0FEF7EF
:105390004FFC064605E000BFFEF74AFC801B642870
:1053A000F0D828688003F7D4207841F20308D54E5E
:1053B0000C3E800769D5D9F80000396810F0380034
:1053C0000ED0182801D188070AD0E06890B3296868
:1053D00021F0190101432960FEF72AFC824631E0E1
:1053E0002868400702D5E06800288AD0E16828686C
:1053F00020F0190008432860FEF71AFC824607E0F7
:10540000DFE000BFFEF714FCA0EB0A000228B9D8C9
:1054100028684007F6D500BFFEF704FC40451BD8BE
:105420002069402812D0316821F47C3141EA0030F3
:1054300030602AE018E000BFFEF7FAFBA0EB0A009C
:1054400002289FD828684007F6D5E5E7306820F4A1
:105450007C3040F40030EBE7207C316821F0FE41E5
:1054600041EA0060E4E70DE1286820F001002860CF
:10547000FEF7DEFB824605E0FEF7DAFBA0EB0A0052
:1054800002288DD828684007F6D42078C0065DD55C
:10549000D9F80000DFF86CB2396800F03800ABF1E1
:1054A000040B082810D0182803D101F003000128AC
:1054B0000AD0E0690028286838D040F080002860D1
:1054C000FEF7B6FB824623E02868C00523D5E069D5
:1054D000802876D11FE0206A202821D0316821F071
:1054E000F84141EA8060306030E000BF94F820105D
:1054F000DBF8002022F07C5242EA0161CBF8001078
:1055000024E000BFFEF794FBA0EB0A00022898D825
:105510002868C005F6D5FEF785FB4045E6D8DAE7F2
:10552000306820F0F84040F08040DCE720F0800058
:105530002860FEF77DFB064605E000BFFEF778FB1E
:10554000801B02289DD82868C005F7D42078000762
:1055500029D56C486169643000298046016811D002
:1055600041F001010160FEF763FB064605E000BF64
:10557000FEF75EFB801B0228C9D8D8F80000800720
:10558000F6D510E021F001010160FEF751FB06465F
:1055900005E000BFFEF74CFB801B022872D8D8F84C
:1055A00000008007F6D42078800623D5A069002863
:1055B000286810D040F480502860FEF739FB06467A
:1055C00005E036E1FEF734FB801B02285AD8286834
:1055D0008004F7D50EE020F480502860FEF728FB09
:1055E000064604E0FEF724FB801B02284AD8286800
:1055F0008004F7D4207840074FD5DFF80C81D8F825
:10560000001041F48071C8F80010FEF711FB064647
:1056100005E000BFFEF70CFB801B642832D8D8F8E9
:105620000000C005F6D5374EA068603601280AD0C4
:1056300008B1052813D0306820F0010030603068D0
:1056400020F0040002E0306840F001003060A06803
:1056500041F2883A90B1FEF7EBFA80460AE03068F2
:1056600040F004003060EEE7FEF7E2FAA0EB08013C
:10567000514507D830688007F6D50EE0FEF7D8FA16
:10568000804607E084E000BFFEF7D2FAA0EB0801F5
:1056900051457DD830688007F6D4606AB0B3DFF832
:1056A0006480D9F8001008F120084FF6F87B08F163
:1056B0000409C1F3C2010329A8F1040A69D0022830
:1056C000286820F08070286003D0FEF7B1FA044605
:1056D00084E0FEF7ADFA064605E000BFFEF7A8FA43
:1056E000801B022877D828688001F7D4E26A40F24C
:1056F000F331386854F8283F884340EA02101843D1
:10570000386004E01044025800480258B5E0217B9C
:10571000434622894FF4FE0C208A4FF0FE4749028F
:10572000267D521E401EA1F50071C2F308088AB200
:10573000761E0CEA004042EA08020243504607EA9D
:1057400006610A431A60DAF8002022F00102CAF862
:105750000020D9F80020266A22EA0B0242EAC6029B
:10576000C9F80020DAF80010A26921F00C011143F9
:10577000CAF800100168E26921F0020111430160DA
:10578000016841F480310160016841F4003101E0B9
:1057900021E027E00160016841F480210160016897
:1057A00041F001010160286840F080702860FEF738
:1057B0003FFA044605E000BFFEF73AFA001B022854
:1057C00009D828688001F7D557E000BFFEF730FA06
:1057D000001B022802D90320BDE8F09F2868800141
:1057E000F4D44AE039680128D8F8000021D0A26A30
:1057F00001F0030393421CD1E26AC1F305118A420E
:1058000017D1216BC0F30802491E8A4211D1616B86
:10581000C0F34622491E91420BD1A16BC0F3064250
:10582000491E914205D1E16BC0F30660491E8142D9
:1058300001D00120D0E7A16C4E46D9F80000C0F39A
:10584000CC00814219D0DAF80000554620F0010062
:10585000CAF80000FEF7ECF94FEA0007FEF7E8F996
:10586000B842FBD0A26C306820EA0B0040EAC200CC
:105870003060286840F0010028600020ACE700009C
:105880002DE9F04104001D4616460F4603D0D4F81A
:10589000880018B108E00120BDE8F081002084F8FC
:1058A0008400204601F0F8FB2420C4F8880020681A
:1058B000016821F001010160A06A10B1204604F0E6
:1058C000B3FA204604F050FC0128E5D020687105A9
:1058D0000D4A41EA0541836843F4804383602068B0
:1058E000836823F400433B438360206803681340CC
:1058F0000B4303602068016841F00101016020460C
:10590000BDE8F04104F0F4BAFFFF00FC704790F8E6
:10591000810070472DE9F0410446006800210269CA
:105920004369876894F8816002EA03055FEA035CD3
:105930000AD5120708D5816941F4006181612046CA
:1059400000F047FABDE8F08115F0600F08D1680754
:1059500006D5616F20468847216F20468847012180
:1059600005F04100012805D1680703D4216F2046C6
:105970008847012105F02200022806D1680704D4D7
:10598000616F2046BDE8F04108470029DAD12807B9
:105990004FF0010859D52068816941F00801816103
:1059A0002068816941F0100181612068816941F4BA
:1059B000006181612068016921F0080101612068AE
:1059C000806810F4404F1ED021E0E0680F2806D90F
:1059D0002068616E006B0860606E001D0DE0616EF6
:1059E0000728206804D9008E0880606E801C04E0BF
:1059F00090F830000870606E401C6066B4F86A0071
:105A0000401EA4F86A00B4F86A000028DDD12046E0
:105A100003F01AFD84F88180D4F8840018B1204680
:105A2000FFF774FF8EE7052E07D0042E09D0032E52
:105A300088D1204600F0CEFA84E7204600F0CBFA69
:105A400080E7204600F0C4F97CE715F4587FE9D0E0
:105A500068060AD5D4F8840040F00400C4F8840035
:105A60002068816941F040018161A8050AD5D4F818
:105A7000840040F00100C4F884002068816941F48A
:105A800000718161E8050AD5D4F8840040F008006F
:105A9000C4F884002068816941F480718161A8069E
:105AA0000AD5D4F8840040F08000C4F8840020684F
:105AB000816941F020018161D4F884000028B1D0CF
:105AC000206840F26B32C7F381310368032923F069
:105AD000010101602068016921EA0201016102D02F
